{
  "_format": "hh-sol-artifact-1",
  "contractName": "BlockVote",
  "sourceName": "contracts/Voting.sol",
  "abi": [
    {
      "inputs": [],
      "stateMutability": "nonpayable",
      "type": "constructor"
    },
    {
      "anonymous": false,
      "inputs": [
        {
          "indexed": false,
          "internalType": "uint256",
          "name": "electionId",
          "type": "uint256"
        },
        {
          "indexed": false,
          "internalType": "uint256",
          "name": "candidateId",
          "type": "uint256"
        }
      ],
      "name": "CandidateAdded",
      "type": "event"
    },
    {
      "anonymous": false,
      "inputs": [
        {
          "indexed": false,
          "internalType": "uint256",
          "name": "electionId",
          "type": "uint256"
        },
        {
          "indexed": false,
          "internalType": "string",
          "name": "title",
          "type": "string"
        }
      ],
      "name": "ElectionCreated",
      "type": "event"
    },
    {
      "anonymous": false,
      "inputs": [
        {
          "indexed": false,
          "internalType": "uint256",
          "name": "electionId",
          "type": "uint256"
        },
        {
          "indexed": false,
          "internalType": "uint256",
          "name": "candidateId",
          "type": "uint256"
        },
        {
          "indexed": false,
          "internalType": "address",
          "name": "voter",
          "type": "address"
        }
      ],
      "name": "VoteCast",
      "type": "event"
    },
    {
      "inputs": [
        {
          "internalType": "uint256",
          "name": "_electionId",
          "type": "uint256"
        },
        {
          "internalType": "string",
          "name": "_name",
          "type": "string"
        },
        {
          "internalType": "string",
          "name": "_party",
          "type": "string"
        },
        {
          "internalType": "string",
          "name": "_imageUrl",
          "type": "string"
        },
        {
          "internalType": "address",
          "name": "_wallet",
          "type": "address"
        }
      ],
      "name": "addCandidate",
      "outputs": [],
      "stateMutability": "nonpayable",
      "type": "function"
    },
    {
      "inputs": [],
      "name": "admin",
      "outputs": [
        {
          "internalType": "address",
          "name": "",
          "type": "address"
        }
      ],
      "stateMutability": "view",
      "type": "function"
    },
    {
      "inputs": [
        {
          "internalType": "string",
          "name": "_title",
          "type": "string"
        },
        {
          "internalType": "string",
          "name": "_description",
          "type": "string"
        },
        {
          "internalType": "uint256",
          "name": "_startDate",
          "type": "uint256"
        },
        {
          "internalType": "uint256",
          "name": "_endDate",
          "type": "uint256"
        }
      ],
      "name": "createElection",
      "outputs": [],
      "stateMutability": "nonpayable",
      "type": "function"
    },
    {
      "inputs": [],
      "name": "electionCount",
      "outputs": [
        {
          "internalType": "uint256",
          "name": "",
          "type": "uint256"
        }
      ],
      "stateMutability": "view",
      "type": "function"
    },
    {
      "inputs": [
        {
          "internalType": "uint256",
          "name": "_electionId",
          "type": "uint256"
        }
      ],
      "name": "endElection",
      "outputs": [],
      "stateMutability": "nonpayable",
      "type": "function"
    },
    {
      "inputs": [
        {
          "internalType": "uint256",
          "name": "_electionId",
          "type": "uint256"
        },
        {
          "internalType": "uint256",
          "name": "_candidateId",
          "type": "uint256"
        }
      ],
      "name": "getCandidate",
      "outputs": [
        {
          "internalType": "uint256",
          "name": "id",
          "type": "uint256"
        },
        {
          "internalType": "string",
          "name": "name",
          "type": "string"
        },
        {
          "internalType": "string",
          "name": "party",
          "type": "string"
        },
        {
          "internalType": "string",
          "name": "imageUrl",
          "type": "string"
        },
        {
          "internalType": "address",
          "name": "walletAddress",
          "type": "address"
        },
        {
          "internalType": "uint256",
          "name": "votes",
          "type": "uint256"
        }
      ],
      "stateMutability": "view",
      "type": "function"
    },
    {
      "inputs": [
        {
          "internalType": "uint256",
          "name": "_electionId",
          "type": "uint256"
        }
      ],
      "name": "getElection",
      "outputs": [
        {
          "internalType": "uint256",
          "name": "id",
          "type": "uint256"
        },
        {
          "internalType": "string",
          "name": "title",
          "type": "string"
        },
        {
          "internalType": "string",
          "name": "description",
          "type": "string"
        },
        {
          "internalType": "uint256",
          "name": "startDate",
          "type": "uint256"
        },
        {
          "internalType": "uint256",
          "name": "endDate",
          "type": "uint256"
        },
        {
          "internalType": "bool",
          "name": "active",
          "type": "bool"
        },
        {
          "internalType": "uint256",
          "name": "totalVotes",
          "type": "uint256"
        },
        {
          "internalType": "uint256",
          "name": "candidateCount",
          "type": "uint256"
        }
      ],
      "stateMutability": "view",
      "type": "function"
    },
    {
      "inputs": [
        {
          "internalType": "uint256",
          "name": "_electionId",
          "type": "uint256"
        }
      ],
      "name": "getWinner",
      "outputs": [
        {
          "internalType": "uint256",
          "name": "winnerId",
          "type": "uint256"
        },
        {
          "internalType": "uint256",
          "name": "votes",
          "type": "uint256"
        }
      ],
      "stateMutability": "view",
      "type": "function"
    },
    {
      "inputs": [
        {
          "internalType": "uint256",
          "name": "_electionId",
          "type": "uint256"
        },
        {
          "internalType": "address",
          "name": "_voter",
          "type": "address"
        }
      ],
      "name": "hasVoted",
      "outputs": [
        {
          "internalType": "bool",
          "name": "",
          "type": "bool"
        }
      ],
      "stateMutability": "view",
      "type": "function"
    },
    {
      "inputs": [
        {
          "internalType": "uint256",
          "name": "_electionId",
          "type": "uint256"
        }
      ],
      "name": "startElection",
      "outputs": [],
      "stateMutability": "nonpayable",
      "type": "function"
    },
    {
      "inputs": [
        {
          "internalType": "uint256",
          "name": "_electionId",
          "type": "uint256"
        },
        {
          "internalType": "uint256",
          "name": "_candidateId",
          "type": "uint256"
        }
      ],
      "name": "vote",
      "outputs": [],
      "stateMutability": "nonpayable",
      "type": "function"
    }
  ],
  "bytecode": "0x608060405234801561001057600080fd5b50336000806101000a81548173ffffffffffffffffffffffffffffffffffffffff021916908373ffffffffffffffffffffffffffffffffffffffff160217905550611dbf806100606000396000f3fe608060405234801561001057600080fd5b50600436106100a95760003560e01c80637ad36e84116100715780637ad36e841461017c578063997d2830146101985780639c98bcbb146101b65780639d710777146101d2578063b384abef14610209578063f851a44014610225576100a9565b8063062297c6146100ae5780634129b2c9146100ca57806343859632146100fb5780634bd464481461012b5780636d32dc4b14610160575b600080fd5b6100c860048036038101906100c391906112f6565b610243565b005b6100e460048036038101906100df91906113c5565b61049b565b6040516100f2929190611401565b60405180910390f35b6101156004803603810190610110919061142a565b61057e565b6040516101229190611485565b60405180910390f35b610145600480360381019061014091906114a0565b61063c565b6040516101579695949392919061156e565b60405180910390f35b61017a600480360381019061017591906113c5565b6108ba565b005b610196600480360381019061019191906115e4565b6109cd565b005b6101a0610b6e565b6040516101ad9190611683565b60405180910390f35b6101d060048036038101906101cb91906113c5565b610b74565b005b6101ec60048036038101906101e791906113c5565b610c87565b60405161020098979695949392919061169e565b60405180910390f35b610223600480360381019061021e91906114a0565b610e65565b005b61022d6110e4565b60405161023a919061172a565b60405180910390f35b60008054906101000a900473ffffffffffffffffffffffffffffffffffffffff1673ffffffffffffffffffffffffffffffffffffffff163373ffffffffffffffffffffffffffffffffffffffff16146102d1576040517f08c379a00000000000000000000000000000000000000000000000000000000081526004016102c890611791565b60405180910390fd5b846000811180156102e457506001548111155b610323576040517f08c379a000000000000000000000000000000000000000000000000000000000815260040161031a906117fd565b60405180910390fd5b600060026000888152602001908152602001600020905080600701600081548092919061034f9061184c565b91905055506040518060c00160405280826007015481526020018781526020018681526020018581526020018473ffffffffffffffffffffffffffffffffffffffff1681526020016000815250816008016000836007015481526020019081526020016000206000820151816000015560208201518160010190816103d49190611aa0565b5060408201518160020190816103ea9190611aa0565b5060608201518160030190816104009190611aa0565b5060808201518160040160006101000a81548173ffffffffffffffffffffffffffffffffffffffff021916908373ffffffffffffffffffffffffffffffffffffffff16021790555060a082015181600501559050507fa072a1e90a5e808c6722a8b7c3457a422c2ee51d7b1a53dceb40bcb32586ac7087826007015460405161048a929190611401565b60405180910390a150505050505050565b600080826000811180156104b157506001548111155b6104f0576040517f08c379a00000000000000000000000000000000000000000000000000000000081526004016104e7906117fd565b60405180910390fd5b60006002600086815260200190815260200160002090506000806000600190505b8360070154811161056e578284600801600083815260200190815260200160002060050154111561055b578360080160008281526020019081526020016000206005015492508091505b80806105669061184c565b915050610511565b5080829550955050505050915091565b60008260008111801561059357506001548111155b6105d2576040517f08c379a00000000000000000000000000000000000000000000000000000000081526004016105c9906117fd565b60405180910390fd5b6002600085815260200190815260200160002060090160008473ffffffffffffffffffffffffffffffffffffffff1673ffffffffffffffffffffffffffffffffffffffff16815260200190815260200160002060009054906101000a900460ff1691505092915050565b600060608060606000808760008111801561065957506001548111155b610698576040517f08c379a000000000000000000000000000000000000000000000000000000000815260040161068f906117fd565b60405180910390fd5b6000600260008b815260200190815260200160002060080160008a8152602001908152602001600020905080600001548160010182600201836003018460040160009054906101000a900473ffffffffffffffffffffffffffffffffffffffff16856005015484805461070a906118c3565b80601f0160208091040260200160405190810160405280929190818152602001828054610736906118c3565b80156107835780601f1061075857610100808354040283529160200191610783565b820191906000526020600020905b81548152906001019060200180831161076657829003601f168201915b50505050509450838054610796906118c3565b80601f01602080910402602001604051908101604052809291908181526020018280546107c2906118c3565b801561080f5780601f106107e45761010080835404028352916020019161080f565b820191906000526020600020905b8154815290600101906020018083116107f257829003601f168201915b50505050509350828054610822906118c3565b80601f016020809104026020016040519081016040528092919081815260200182805461084e906118c3565b801561089b5780601f106108705761010080835404028352916020019161089b565b820191906000526020600020905b81548152906001019060200180831161087e57829003601f168201915b5050505050925097509750975097509750975050509295509295509295565b60008054906101000a900473ffffffffffffffffffffffffffffffffffffffff1673ffffffffffffffffffffffffffffffffffffffff163373ffffffffffffffffffffffffffffffffffffffff1614610948576040517f08c379a000000000000000000000000000000000000000000000000000000000815260040161093f90611791565b60405180910390fd5b8060008111801561095b57506001548111155b61099a576040517f08c379a0000000000000000000000000000000000000000000000000000000008152600401610991906117fd565b60405180910390fd5b60016002600084815260200190815260200160002060050160006101000a81548160ff0219169083151502179055505050565b60008054906101000a900473ffffffffffffffffffffffffffffffffffffffff1673ffffffffffffffffffffffffffffffffffffffff163373ffffffffffffffffffffffffffffffffffffffff1614610a5b576040517f08c379a0000000000000000000000000000000000000000000000000000000008152600401610a5290611791565b60405180910390fd5b818111610a9d576040517f08c379a0000000000000000000000000000000000000000000000000000000008152600401610a9490611bbe565b60405180910390fd5b60016000815480929190610ab09061184c565b919050555060006002600060015481526020019081526020016000209050600154816000018190555084816001019081610aea9190611aa0565b5083816002019081610afc9190611aa0565b5082816003018190555081816004018190555060008160050160006101000a81548160ff0219169083151502179055507f52be7c4e77b4de76b7607d621492061fe13b58597e72dfb5e51ab8f6187ed14160015486604051610b5f929190611bde565b60405180910390a15050505050565b60015481565b60008054906101000a900473ffffffffffffffffffffffffffffffffffffffff1673ffffffffffffffffffffffffffffffffffffffff163373ffffffffffffffffffffffffffffffffffffffff1614610c02576040517f08c379a0000000000000000000000000000000000000000000000000000000008152600401610bf990611791565b60405180910390fd5b80600081118015610c1557506001548111155b610c54576040517f08c379a0000000000000000000000000000000000000000000000000000000008152600401610c4b906117fd565b60405180910390fd5b60006002600084815260200190815260200160002060050160006101000a81548160ff0219169083151502179055505050565b6000606080600080600080600088600081118015610ca757506001548111155b610ce6576040517f08c379a0000000000000000000000000000000000000000000000000000000008152600401610cdd906117fd565b60405180910390fd5b6000600260008c8152602001908152602001600020905080600001548160010182600201836003015484600401548560050160009054906101000a900460ff1686600601548760070154868054610d3c906118c3565b80601f0160208091040260200160405190810160405280929190818152602001828054610d68906118c3565b8015610db55780601f10610d8a57610100808354040283529160200191610db5565b820191906000526020600020905b815481529060010190602001808311610d9857829003601f168201915b50505050509650858054610dc8906118c3565b80601f0160208091040260200160405190810160405280929190818152602001828054610df4906118c3565b8015610e415780601f10610e1657610100808354040283529160200191610e41565b820191906000526020600020905b815481529060010190602001808311610e2457829003601f168201915b50505050509550995099509950995099509950995099505050919395975091939597565b81600081118015610e7857506001548111155b610eb7576040517f08c379a0000000000000000000000000000000000000000000000000000000008152600401610eae906117fd565b60405180910390fd5b60006002600085815260200190815260200160002090508060050160009054906101000a900460ff16610f1f576040517f08c379a0000000000000000000000000000000000000000000000000000000008152600401610f1690611c5a565b60405180910390fd5b8060090160003373ffffffffffffffffffffffffffffffffffffffff1673ffffffffffffffffffffffffffffffffffffffff16815260200190815260200160002060009054906101000a900460ff1615610fae576040517f08c379a0000000000000000000000000000000000000000000000000000000008152600401610fa590611cc6565b60405180910390fd5b600083118015610fc2575080600701548311155b611001576040517f08c379a0000000000000000000000000000000000000000000000000000000008152600401610ff890611d32565b60405180910390fd5b60018160090160003373ffffffffffffffffffffffffffffffffffffffff1673ffffffffffffffffffffffffffffffffffffffff16815260200190815260200160002060006101000a81548160ff02191690831515021790555080600801600084815260200190815260200160002060050160008154809291906110849061184c565b919050555080600601600081548092919061109e9061184c565b91905055507f7fe1d4e6b34e228b5dc059fcdc037c71b216fb2417f47c171e505144a5e4f5fc8484336040516110d693929190611d52565b60405180910390a150505050565b60008054906101000a900473ffffffffffffffffffffffffffffffffffffffff1681565b6000604051905090565b600080fd5b600080fd5b6000819050919050565b61112f8161111c565b811461113a57600080fd5b50565b60008135905061114c81611126565b92915050565b600080fd5b600080fd5b6000601f19601f8301169050919050565b7f4e487b7100000000000000000000000000000000000000000000000000000000600052604160045260246000fd5b6111a58261115c565b810181811067ffffffffffffffff821117156111c4576111c361116d565b5b80604052505050565b60006111d7611108565b90506111e3828261119c565b919050565b600067ffffffffffffffff8211156112035761120261116d565b5b61120c8261115c565b9050602081019050919050565b82818337600083830152505050565b600061123b611236846111e8565b6111cd565b90508281526020810184848401111561125757611256611157565b5b611262848285611219565b509392505050565b600082601f83011261127f5761127e611152565b5b813561128f848260208601611228565b91505092915050565b600073ffffffffffffffffffffffffffffffffffffffff82169050919050565b60006112c382611298565b9050919050565b6112d3816112b8565b81146112de57600080fd5b50565b6000813590506112f0816112ca565b92915050565b600080600080600060a0868803121561131257611311611112565b5b60006113208882890161113d565b955050602086013567ffffffffffffffff81111561134157611340611117565b5b61134d8882890161126a565b945050604086013567ffffffffffffffff81111561136e5761136d611117565b5b61137a8882890161126a565b935050606086013567ffffffffffffffff81111561139b5761139a611117565b5b6113a78882890161126a565b92505060806113b8888289016112e1565b9150509295509295909350565b6000602082840312156113db576113da611112565b5b60006113e98482850161113d565b91505092915050565b6113fb8161111c565b82525050565b600060408201905061141660008301856113f2565b61142360208301846113f2565b9392505050565b6000806040838503121561144157611440611112565b5b600061144f8582860161113d565b9250506020611460858286016112e1565b9150509250929050565b60008115159050919050565b61147f8161146a565b82525050565b600060208201905061149a6000830184611476565b92915050565b600080604083850312156114b7576114b6611112565b5b60006114c58582860161113d565b92505060206114d68582860161113d565b9150509250929050565b600081519050919050565b600082825260208201905092915050565b60005b8381101561151a5780820151818401526020810190506114ff565b60008484015250505050565b6000611531826114e0565b61153b81856114eb565b935061154b8185602086016114fc565b6115548161115c565b840191505092915050565b611568816112b8565b82525050565b600060c08201905061158360008301896113f2565b81810360208301526115958188611526565b905081810360408301526115a98187611526565b905081810360608301526115bd8186611526565b90506115cc608083018561155f565b6115d960a08301846113f2565b979650505050505050565b600080600080608085870312156115fe576115fd611112565b5b600085013567ffffffffffffffff81111561161c5761161b611117565b5b6116288782880161126a565b945050602085013567ffffffffffffffff81111561164957611648611117565b5b6116558782880161126a565b93505060406116668782880161113d565b92505060606116778782880161113d565b91505092959194509250565b600060208201905061169860008301846113f2565b92915050565b6000610100820190506116b4600083018b6113f2565b81810360208301526116c6818a611526565b905081810360408301526116da8189611526565b90506116e960608301886113f2565b6116f660808301876113f2565b61170360a0830186611476565b61171060c08301856113f2565b61171d60e08301846113f2565b9998505050505050505050565b600060208201905061173f600083018461155f565b92915050565b7f4f6e6c792061646d696e20616c6c6f7765640000000000000000000000000000600082015250565b600061177b6012836114eb565b915061178682611745565b602082019050919050565b600060208201905081810360008301526117aa8161176e565b9050919050565b7f456c656374696f6e206e6f7420666f756e640000000000000000000000000000600082015250565b60006117e76012836114eb565b91506117f2826117b1565b602082019050919050565b60006020820190508181036000830152611816816117da565b9050919050565b7f4e487b7100000000000000000000000000000000000000000000000000000000600052601160045260246000fd5b60006118578261111c565b91507fffffffffffffffffffffffffffffffffffffffffffffffffffffffffffffffff82036118895761188861181d565b5b600182019050919050565b7f4e487b7100000000000000000000000000000000000000000000000000000000600052602260045260246000fd5b600060028204905060018216806118db57607f821691505b6020821081036118ee576118ed611894565b5b50919050565b60008190508160005260206000209050919050565b60006020601f8301049050919050565b600082821b905092915050565b6000600883026119567fffffffffffffffffffffffffffffffffffffffffffffffffffffffffffffffff82611919565b6119608683611919565b95508019841693508086168417925050509392505050565b6000819050919050565b600061199d6119986119938461111c565b611978565b61111c565b9050919050565b6000819050919050565b6119b783611982565b6119cb6119c3826119a4565b848454611926565b825550505050565b600090565b6119e06119d3565b6119eb8184846119ae565b505050565b5b81811015611a0f57611a046000826119d8565b6001810190506119f1565b5050565b601f821115611a5457611a25816118f4565b611a2e84611909565b81016020851015611a3d578190505b611a51611a4985611909565b8301826119f0565b50505b505050565b600082821c905092915050565b6000611a7760001984600802611a59565b1980831691505092915050565b6000611a908383611a66565b9150826002028217905092915050565b611aa9826114e0565b67ffffffffffffffff811115611ac257611ac161116d565b5b611acc82546118c3565b611ad7828285611a13565b600060209050601f831160018114611b0a5760008415611af8578287015190505b611b028582611a84565b865550611b6a565b601f198416611b18866118f4565b60005b82811015611b4057848901518255600182019150602085019450602081019050611b1b565b86831015611b5d5784890151611b59601f891682611a66565b8355505b6001600288020188555050505b505050505050565b7f496e76616c696420646174657300000000000000000000000000000000000000600082015250565b6000611ba8600d836114eb565b9150611bb382611b72565b602082019050919050565b60006020820190508181036000830152611bd781611b9b565b9050919050565b6000604082019050611bf360008301856113f2565b8181036020830152611c058184611526565b90509392505050565b7f456c656374696f6e206e6f742061637469766500000000000000000000000000600082015250565b6000611c446013836114eb565b9150611c4f82611c0e565b602082019050919050565b60006020820190508181036000830152611c7381611c37565b9050919050565b7f416c726561647920766f74656400000000000000000000000000000000000000600082015250565b6000611cb0600d836114eb565b9150611cbb82611c7a565b602082019050919050565b60006020820190508181036000830152611cdf81611ca3565b9050919050565b7f496e76616c69642063616e646964617465000000000000000000000000000000600082015250565b6000611d1c6011836114eb565b9150611d2782611ce6565b602082019050919050565b60006020820190508181036000830152611d4b81611d0f565b9050919050565b6000606082019050611d6760008301866113f2565b611d7460208301856113f2565b611d81604083018461155f565b94935050505056fea2646970667358221220b938a798a87a553029cad90e0ea595f7c8f0b8f22795b62156031952fda8927c64736f6c63430008140033",
  "linkReferences": {},
  "deployedLinkReferences": {}
}