{
  "_format": "hh-sol-artifact-1",
  "contractName": "BlockVote",
  "sourceName": "contracts/Voting.sol",
  "abi": [
    {
      "inputs": [],
      "stateMutability": "nonpayable",
      "type": "constructor"
    },
    {
      "anonymous": false,
      "inputs": [
        {
          "indexed": false,
          "internalType": "uint256",
          "name": "electionId",
          "type": "uint256"
        },
        {
          "indexed": false,
          "internalType": "uint256",
          "name": "candidateId",
          "type": "uint256"
        }
      ],
      "name": "CandidateAdded",
      "type": "event"
    },
    {
      "anonymous": false,
      "inputs": [
        {
          "indexed": false,
          "internalType": "uint256",
          "name": "electionId",
          "type": "uint256"
        },
        {
          "indexed": false,
          "internalType": "string",
          "name": "title",
          "type": "string"
        }
      ],
      "name": "ElectionCreated",
      "type": "event"
    },
    {
      "anonymous": false,
      "inputs": [
        {
          "indexed": false,
          "internalType": "address",
          "name": "wallet",
          "type": "address"
        },
        {
          "indexed": false,
          "internalType": "string",
          "name": "name",
          "type": "string"
        }
      ],
      "name": "SubAdminAdded",
      "type": "event"
    },
    {
      "anonymous": false,
      "inputs": [
        {
          "indexed": false,
          "internalType": "address",
          "name": "wallet",
          "type": "address"
        }
      ],
      "name": "SubAdminRemoved",
      "type": "event"
    },
    {
      "anonymous": false,
      "inputs": [
        {
          "indexed": false,
          "internalType": "uint256",
          "name": "electionId",
          "type": "uint256"
        },
        {
          "indexed": false,
          "internalType": "uint256",
          "name": "candidateId",
          "type": "uint256"
        },
        {
          "indexed": false,
          "internalType": "address",
          "name": "voter",
          "type": "address"
        }
      ],
      "name": "VoteCast",
      "type": "event"
    },
    {
      "anonymous": false,
      "inputs": [
        {
          "indexed": false,
          "internalType": "address",
          "name": "voter",
          "type": "address"
        }
      ],
      "name": "VoterRegistered",
      "type": "event"
    },
    {
      "anonymous": false,
      "inputs": [
        {
          "indexed": false,
          "internalType": "address",
          "name": "voter",
          "type": "address"
        }
      ],
      "name": "VoterVerified",
      "type": "event"
    },
    {
      "inputs": [
        {
          "internalType": "uint256",
          "name": "_electionId",
          "type": "uint256"
        },
        {
          "internalType": "string",
          "name": "_name",
          "type": "string"
        },
        {
          "internalType": "string",
          "name": "_party",
          "type": "string"
        },
        {
          "internalType": "string",
          "name": "_imageUrl",
          "type": "string"
        },
        {
          "internalType": "address",
          "name": "_wallet",
          "type": "address"
        }
      ],
      "name": "addCandidate",
      "outputs": [],
      "stateMutability": "nonpayable",
      "type": "function"
    },
    {
      "inputs": [
        {
          "internalType": "address",
          "name": "_wallet",
          "type": "address"
        },
        {
          "internalType": "string",
          "name": "_name",
          "type": "string"
        },
        {
          "internalType": "string",
          "name": "_email",
          "type": "string"
        }
      ],
      "name": "addSubAdmin",
      "outputs": [],
      "stateMutability": "nonpayable",
      "type": "function"
    },
    {
      "inputs": [],
      "name": "admin",
      "outputs": [
        {
          "internalType": "address",
          "name": "",
          "type": "address"
        }
      ],
      "stateMutability": "view",
      "type": "function"
    },
    {
      "inputs": [
        {
          "internalType": "string",
          "name": "_title",
          "type": "string"
        },
        {
          "internalType": "string",
          "name": "_description",
          "type": "string"
        },
        {
          "internalType": "uint256",
          "name": "_startDate",
          "type": "uint256"
        },
        {
          "internalType": "uint256",
          "name": "_endDate",
          "type": "uint256"
        }
      ],
      "name": "createElection",
      "outputs": [],
      "stateMutability": "nonpayable",
      "type": "function"
    },
    {
      "inputs": [],
      "name": "electionCount",
      "outputs": [
        {
          "internalType": "uint256",
          "name": "",
          "type": "uint256"
        }
      ],
      "stateMutability": "view",
      "type": "function"
    },
    {
      "inputs": [
        {
          "internalType": "uint256",
          "name": "_electionId",
          "type": "uint256"
        }
      ],
      "name": "endElection",
      "outputs": [],
      "stateMutability": "nonpayable",
      "type": "function"
    },
    {
      "inputs": [
        {
          "internalType": "uint256",
          "name": "_electionId",
          "type": "uint256"
        },
        {
          "internalType": "uint256",
          "name": "_candidateId",
          "type": "uint256"
        }
      ],
      "name": "getCandidate",
      "outputs": [
        {
          "internalType": "uint256",
          "name": "id",
          "type": "uint256"
        },
        {
          "internalType": "string",
          "name": "name",
          "type": "string"
        },
        {
          "internalType": "string",
          "name": "party",
          "type": "string"
        },
        {
          "internalType": "string",
          "name": "imageUrl",
          "type": "string"
        },
        {
          "internalType": "address",
          "name": "wallet",
          "type": "address"
        },
        {
          "internalType": "uint256",
          "name": "votes",
          "type": "uint256"
        }
      ],
      "stateMutability": "view",
      "type": "function"
    },
    {
      "inputs": [
        {
          "internalType": "uint256",
          "name": "_electionId",
          "type": "uint256"
        }
      ],
      "name": "getElection",
      "outputs": [
        {
          "internalType": "uint256",
          "name": "id",
          "type": "uint256"
        },
        {
          "internalType": "string",
          "name": "title",
          "type": "string"
        },
        {
          "internalType": "string",
          "name": "description",
          "type": "string"
        },
        {
          "internalType": "uint256",
          "name": "startDate",
          "type": "uint256"
        },
        {
          "internalType": "uint256",
          "name": "endDate",
          "type": "uint256"
        },
        {
          "internalType": "bool",
          "name": "active",
          "type": "bool"
        },
        {
          "internalType": "uint256",
          "name": "totalVotes",
          "type": "uint256"
        },
        {
          "internalType": "uint256",
          "name": "candidateCount",
          "type": "uint256"
        }
      ],
      "stateMutability": "view",
      "type": "function"
    },
    {
      "inputs": [
        {
          "internalType": "uint256",
          "name": "_electionId",
          "type": "uint256"
        }
      ],
      "name": "getWinner",
      "outputs": [
        {
          "internalType": "uint256",
          "name": "winnerId",
          "type": "uint256"
        },
        {
          "internalType": "uint256",
          "name": "votes",
          "type": "uint256"
        }
      ],
      "stateMutability": "view",
      "type": "function"
    },
    {
      "inputs": [
        {
          "internalType": "uint256",
          "name": "_electionId",
          "type": "uint256"
        },
        {
          "internalType": "address",
          "name": "_voter",
          "type": "address"
        }
      ],
      "name": "hasVoted",
      "outputs": [
        {
          "internalType": "bool",
          "name": "",
          "type": "bool"
        }
      ],
      "stateMutability": "view",
      "type": "function"
    },
    {
      "inputs": [
        {
          "internalType": "string",
          "name": "_name",
          "type": "string"
        }
      ],
      "name": "registerVoter",
      "outputs": [],
      "stateMutability": "nonpayable",
      "type": "function"
    },
    {
      "inputs": [
        {
          "internalType": "address",
          "name": "_wallet",
          "type": "address"
        }
      ],
      "name": "removeSubAdmin",
      "outputs": [],
      "stateMutability": "nonpayable",
      "type": "function"
    },
    {
      "inputs": [
        {
          "internalType": "uint256",
          "name": "_electionId",
          "type": "uint256"
        }
      ],
      "name": "startElection",
      "outputs": [],
      "stateMutability": "nonpayable",
      "type": "function"
    },
    {
      "inputs": [
        {
          "internalType": "address",
          "name": "",
          "type": "address"
        }
      ],
      "name": "subAdmins",
      "outputs": [
        {
          "internalType": "address",
          "name": "wallet",
          "type": "address"
        },
        {
          "internalType": "string",
          "name": "fullName",
          "type": "string"
        },
        {
          "internalType": "string",
          "name": "email",
          "type": "string"
        },
        {
          "internalType": "bool",
          "name": "isActive",
          "type": "bool"
        }
      ],
      "stateMutability": "view",
      "type": "function"
    },
    {
      "inputs": [
        {
          "internalType": "address",
          "name": "_voter",
          "type": "address"
        }
      ],
      "name": "verifyVoter",
      "outputs": [],
      "stateMutability": "nonpayable",
      "type": "function"
    },
    {
      "inputs": [
        {
          "internalType": "uint256",
          "name": "_electionId",
          "type": "uint256"
        },
        {
          "internalType": "uint256",
          "name": "_candidateId",
          "type": "uint256"
        }
      ],
      "name": "vote",
      "outputs": [],
      "stateMutability": "nonpayable",
      "type": "function"
    },
    {
      "inputs": [
        {
          "internalType": "address",
          "name": "",
          "type": "address"
        }
      ],
      "name": "voters",
      "outputs": [
        {
          "internalType": "address",
          "name": "wallet",
          "type": "address"
        },
        {
          "internalType": "string",
          "name": "fullName",
          "type": "string"
        },
        {
          "internalType": "bool",
          "name": "registered",
          "type": "bool"
        },
        {
          "internalType": "bool",
          "name": "verified",
          "type": "bool"
        }
      ],
      "stateMutability": "view",
      "type": "function"
    }
  ],
  "bytecode": "0x608060405234801561001057600080fd5b50336000806101000a81548173ffffffffffffffffffffffffffffffffffffffff021916908373ffffffffffffffffffffffffffffffffffffffff160217905550612d52806100606000396000f3fe608060405234801561001057600080fd5b506004361061010b5760003560e01c80636d32dc4b116100a25780639d710777116100715780639d710777146102bb578063a3ec138d146102f2578063b384abef14610325578063f4651d5714610341578063f851a4401461035d5761010b565b80636d32dc4b146102495780637ad36e8414610265578063997d2830146102815780639c98bcbb1461029f5761010b565b806343859632116100de57806343859632146101955780634bd46448146101c55780636132fa63146101fa5780636428a4861461022d5761010b565b8063062297c61461011057806309bd09501461012c57806312971b44146101485780634129b2c914610164575b600080fd5b61012a60048036038101906101259190611e9d565b61037b565b005b61014660048036038101906101419190611f6c565b61062a565b005b610162600480360381019061015d9190611f99565b6108c3565b005b61017e60048036038101906101799190612024565b610a9e565b60405161018c929190612060565b60405180910390f35b6101af60048036038101906101aa9190612089565b610b81565b6040516101bc91906120e4565b60405180910390f35b6101df60048036038101906101da91906120ff565b610bec565b6040516101f1969594939291906121cd565b60405180910390f35b610214600480360381019061020f9190611f6c565b610e6a565b6040516102249493929190612243565b60405180910390f35b61024760048036038101906102429190612296565b610fd7565b005b610263600480360381019061025e9190612024565b6111bd565b005b61027f600480360381019061027a91906122df565b6112d0565b005b610289611471565b604051610296919061237e565b60405180910390f35b6102b960048036038101906102b49190612024565b611477565b005b6102d560048036038101906102d09190612024565b61158a565b6040516102e9989796959493929190612399565b60405180910390f35b61030c60048036038101906103079190611f6c565b611768565b60405161031c9493929190612425565b60405180910390f35b61033f600480360381019061033a91906120ff565b61185a565b005b61035b60048036038101906103569190611f6c565b611b68565b005b610365611c8b565b6040516103729190612471565b60405180910390f35b8460008111801561038e57506001548111155b6103cd576040517f08c379a00000000000000000000000000000000000000000000000000000000081526004016103c4906124d8565b60405180910390fd5b60008054906101000a900473ffffffffffffffffffffffffffffffffffffffff1673ffffffffffffffffffffffffffffffffffffffff163373ffffffffffffffffffffffffffffffffffffffff1614806104735750600360003373ffffffffffffffffffffffffffffffffffffffff1673ffffffffffffffffffffffffffffffffffffffff16815260200190815260200160002060030160009054906101000a900460ff165b6104b2576040517f08c379a00000000000000000000000000000000000000000000000000000000081526004016104a990612544565b60405180910390fd5b60006002600088815260200190815260200160002090508060070160008154809291906104de90612593565b91905055506040518060c00160405280826007015481526020018781526020018681526020018581526020018473ffffffffffffffffffffffffffffffffffffffff16815260200160008152508160080160008360070154815260200190815260200160002060008201518160000155602082015181600101908161056391906127e7565b50604082015181600201908161057991906127e7565b50606082015181600301908161058f91906127e7565b5060808201518160040160006101000a81548173ffffffffffffffffffffffffffffffffffffffff021916908373ffffffffffffffffffffffffffffffffffffffff16021790555060a082015181600501559050507fa072a1e90a5e808c6722a8b7c3457a422c2ee51d7b1a53dceb40bcb32586ac70878260070154604051610619929190612060565b60405180910390a150505050505050565b60008054906101000a900473ffffffffffffffffffffffffffffffffffffffff1673ffffffffffffffffffffffffffffffffffffffff163373ffffffffffffffffffffffffffffffffffffffff1614806106d05750600360003373ffffffffffffffffffffffffffffffffffffffff1673ffffffffffffffffffffffffffffffffffffffff16815260200190815260200160002060030160009054906101000a900460ff165b61070f576040517f08c379a000000000000000000000000000000000000000000000000000000000815260040161070690612544565b60405180910390fd5b600460008273ffffffffffffffffffffffffffffffffffffffff1673ffffffffffffffffffffffffffffffffffffffff16815260200190815260200160002060020160009054906101000a900460ff1661079e576040517f08c379a000000000000000000000000000000000000000000000000000000000815260040161079590612905565b60405180910390fd5b600460008273ffffffffffffffffffffffffffffffffffffffff1673ffffffffffffffffffffffffffffffffffffffff16815260200190815260200160002060020160019054906101000a900460ff161561082e576040517f08c379a000000000000000000000000000000000000000000000000000000000815260040161082590612971565b60405180910390fd5b6001600460008373ffffffffffffffffffffffffffffffffffffffff1673ffffffffffffffffffffffffffffffffffffffff16815260200190815260200160002060020160016101000a81548160ff0219169083151502179055507f73d35f4b5dc2339683083dec639ba37f0f5592fc26de0e0603ac5ba2412cd004816040516108b89190612471565b60405180910390a150565b60008054906101000a900473ffffffffffffffffffffffffffffffffffffffff1673ffffffffffffffffffffffffffffffffffffffff163373ffffffffffffffffffffffffffffffffffffffff1614610951576040517f08c379a0000000000000000000000000000000000000000000000000000000008152600401610948906129dd565b60405180910390fd5b60405180608001604052808473ffffffffffffffffffffffffffffffffffffffff16815260200183815260200182815260200160011515815250600360008573ffffffffffffffffffffffffffffffffffffffff1673ffffffffffffffffffffffffffffffffffffffff16815260200190815260200160002060008201518160000160006101000a81548173ffffffffffffffffffffffffffffffffffffffff021916908373ffffffffffffffffffffffffffffffffffffffff1602179055506020820151816001019081610a2691906127e7565b506040820151816002019081610a3c91906127e7565b5060608201518160030160006101000a81548160ff0219169083151502179055509050507fb6a7fae08f503b164bbdf658a98be91e79b0ea939f92288634b3bd1acbd936598383604051610a919291906129fd565b60405180910390a1505050565b60008082600081118015610ab457506001548111155b610af3576040517f08c379a0000000000000000000000000000000000000000000000000000000008152600401610aea906124d8565b60405180910390fd5b60006002600086815260200190815260200160002090506000806000600190505b83600701548111610b715782846008016000838152602001908152602001600020600501541115610b5e578360080160008281526020019081526020016000206005015492508091505b8080610b6990612593565b915050610b14565b5080829550955050505050915091565b60006002600084815260200190815260200160002060090160008373ffffffffffffffffffffffffffffffffffffffff1673ffffffffffffffffffffffffffffffffffffffff16815260200190815260200160002060009054906101000a900460ff16905092915050565b6000606080606060008087600081118015610c0957506001548111155b610c48576040517f08c379a0000000000000000000000000000000000000000000000000000000008152600401610c3f906124d8565b60405180910390fd5b6000600260008b815260200190815260200160002060080160008a8152602001908152602001600020905080600001548160010182600201836003018460040160009054906101000a900473ffffffffffffffffffffffffffffffffffffffff168560050154848054610cba9061260a565b80601f0160208091040260200160405190810160405280929190818152602001828054610ce69061260a565b8015610d335780601f10610d0857610100808354040283529160200191610d33565b820191906000526020600020905b815481529060010190602001808311610d1657829003601f168201915b50505050509450838054610d469061260a565b80601f0160208091040260200160405190810160405280929190818152602001828054610d729061260a565b8015610dbf5780601f10610d9457610100808354040283529160200191610dbf565b820191906000526020600020905b815481529060010190602001808311610da257829003601f168201915b50505050509350828054610dd29061260a565b80601f0160208091040260200160405190810160405280929190818152602001828054610dfe9061260a565b8015610e4b5780601f10610e2057610100808354040283529160200191610e4b565b820191906000526020600020905b815481529060010190602001808311610e2e57829003601f168201915b5050505050925097509750975097509750975050509295509295509295565b60036020528060005260406000206000915090508060000160009054906101000a900473ffffffffffffffffffffffffffffffffffffffff1690806001018054610eb39061260a565b80601f0160208091040260200160405190810160405280929190818152602001828054610edf9061260a565b8015610f2c5780601f10610f0157610100808354040283529160200191610f2c565b820191906000526020600020905b815481529060010190602001808311610f0f57829003601f168201915b505050505090806002018054610f419061260a565b80601f0160208091040260200160405190810160405280929190818152602001828054610f6d9061260a565b8015610fba5780601f10610f8f57610100808354040283529160200191610fba565b820191906000526020600020905b815481529060010190602001808311610f9d57829003601f168201915b5050505050908060030160009054906101000a900460ff16905084565b600460003373ffffffffffffffffffffffffffffffffffffffff1673ffffffffffffffffffffffffffffffffffffffff16815260200190815260200160002060020160009054906101000a900460ff1615611067576040517f08c379a000000000000000000000000000000000000000000000000000000000815260040161105e90612a79565b60405180910390fd5b60405180608001604052803373ffffffffffffffffffffffffffffffffffffffff16815260200182815260200160011515815260200160001515815250600460003373ffffffffffffffffffffffffffffffffffffffff1673ffffffffffffffffffffffffffffffffffffffff16815260200190815260200160002060008201518160000160006101000a81548173ffffffffffffffffffffffffffffffffffffffff021916908373ffffffffffffffffffffffffffffffffffffffff160217905550602082015181600101908161113f91906127e7565b5060408201518160020160006101000a81548160ff02191690831515021790555060608201518160020160016101000a81548160ff0219169083151502179055509050507fb6be2187d059cc2a55fe29e0e503b566e1e0f8c8780096e185429350acffd3dd336040516111b29190612471565b60405180910390a150565b60008054906101000a900473ffffffffffffffffffffffffffffffffffffffff1673ffffffffffffffffffffffffffffffffffffffff163373ffffffffffffffffffffffffffffffffffffffff161461124b576040517f08c379a0000000000000000000000000000000000000000000000000000000008152600401611242906129dd565b60405180910390fd5b8060008111801561125e57506001548111155b61129d576040517f08c379a0000000000000000000000000000000000000000000000000000000008152600401611294906124d8565b60405180910390fd5b60016002600084815260200190815260200160002060050160006101000a81548160ff0219169083151502179055505050565b60008054906101000a900473ffffffffffffffffffffffffffffffffffffffff1673ffffffffffffffffffffffffffffffffffffffff163373ffffffffffffffffffffffffffffffffffffffff161461135e576040517f08c379a0000000000000000000000000000000000000000000000000000000008152600401611355906129dd565b60405180910390fd5b8181116113a0576040517f08c379a000000000000000000000000000000000000000000000000000000000815260040161139790612ae5565b60405180910390fd5b600160008154809291906113b390612593565b9190505550600060026000600154815260200190815260200160002090506001548160000181905550848160010190816113ed91906127e7565b50838160020190816113ff91906127e7565b5082816003018190555081816004018190555060008160050160006101000a81548160ff0219169083151502179055507f52be7c4e77b4de76b7607d621492061fe13b58597e72dfb5e51ab8f6187ed14160015486604051611462929190612b05565b60405180910390a15050505050565b60015481565b60008054906101000a900473ffffffffffffffffffffffffffffffffffffffff1673ffffffffffffffffffffffffffffffffffffffff163373ffffffffffffffffffffffffffffffffffffffff1614611505576040517f08c379a00000000000000000000000000000000000000000000000000000000081526004016114fc906129dd565b60405180910390fd5b8060008111801561151857506001548111155b611557576040517f08c379a000000000000000000000000000000000000000000000000000000000815260040161154e906124d8565b60405180910390fd5b60006002600084815260200190815260200160002060050160006101000a81548160ff0219169083151502179055505050565b60006060806000806000806000886000811180156115aa57506001548111155b6115e9576040517f08c379a00000000000000000000000000000000000000000000000000000000081526004016115e0906124d8565b60405180910390fd5b6000600260008c8152602001908152602001600020905080600001548160010182600201836003015484600401548560050160009054906101000a900460ff168660060154876007015486805461163f9061260a565b80601f016020809104026020016040519081016040528092919081815260200182805461166b9061260a565b80156116b85780601f1061168d576101008083540402835291602001916116b8565b820191906000526020600020905b81548152906001019060200180831161169b57829003601f168201915b505050505096508580546116cb9061260a565b80601f01602080910402602001604051908101604052809291908181526020018280546116f79061260a565b80156117445780601f1061171957610100808354040283529160200191611744565b820191906000526020600020905b81548152906001019060200180831161172757829003601f168201915b50505050509550995099509950995099509950995099505050919395975091939597565b60046020528060005260406000206000915090508060000160009054906101000a900473ffffffffffffffffffffffffffffffffffffffff16908060010180546117b19061260a565b80601f01602080910402602001604051908101604052809291908181526020018280546117dd9061260a565b801561182a5780601f106117ff5761010080835404028352916020019161182a565b820191906000526020600020905b81548152906001019060200180831161180d57829003601f168201915b5050505050908060020160009054906101000a900460ff16908060020160019054906101000a900460ff16905084565b8160008111801561186d57506001548111155b6118ac576040517f08c379a00000000000000000000000000000000000000000000000000000000081526004016118a3906124d8565b60405180910390fd5b6000600260008581526020019081526020016000209050600460003373ffffffffffffffffffffffffffffffffffffffff1673ffffffffffffffffffffffffffffffffffffffff16815260200190815260200160002060020160019054906101000a900460ff16611952576040517f08c379a000000000000000000000000000000000000000000000000000000000815260040161194990612b81565b60405180910390fd5b8060050160009054906101000a900460ff166119a3576040517f08c379a000000000000000000000000000000000000000000000000000000000815260040161199a90612bed565b60405180910390fd5b8060090160003373ffffffffffffffffffffffffffffffffffffffff1673ffffffffffffffffffffffffffffffffffffffff16815260200190815260200160002060009054906101000a900460ff1615611a32576040517f08c379a0000000000000000000000000000000000000000000000000000000008152600401611a2990612c59565b60405180910390fd5b600083118015611a46575080600701548311155b611a85576040517f08c379a0000000000000000000000000000000000000000000000000000000008152600401611a7c90612cc5565b60405180910390fd5b60018160090160003373ffffffffffffffffffffffffffffffffffffffff1673ffffffffffffffffffffffffffffffffffffffff16815260200190815260200160002060006101000a81548160ff0219169083151502179055508060080160008481526020019081526020016000206005016000815480929190611b0890612593565b9190505550806006016000815480929190611b2290612593565b91905055507f7fe1d4e6b34e228b5dc059fcdc037c71b216fb2417f47c171e505144a5e4f5fc848433604051611b5a93929190612ce5565b60405180910390a150505050565b60008054906101000a900473ffffffffffffffffffffffffffffffffffffffff1673ffffffffffffffffffffffffffffffffffffffff163373ffffffffffffffffffffffffffffffffffffffff1614611bf6576040517f08c379a0000000000000000000000000000000000000000000000000000000008152600401611bed906129dd565b60405180910390fd5b6000600360008373ffffffffffffffffffffffffffffffffffffffff1673ffffffffffffffffffffffffffffffffffffffff16815260200190815260200160002060030160006101000a81548160ff0219169083151502179055507ff52db6a895edbda5985a43301341c9e31e0ac6a6fecbd982956afcf3fdc0fe6d81604051611c809190612471565b60405180910390a150565b60008054906101000a900473ffffffffffffffffffffffffffffffffffffffff1681565b6000604051905090565b600080fd5b600080fd5b6000819050919050565b611cd681611cc3565b8114611ce157600080fd5b50565b600081359050611cf381611ccd565b92915050565b600080fd5b600080fd5b6000601f19601f8301169050919050565b7f4e487b7100000000000000000000000000000000000000000000000000000000600052604160045260246000fd5b611d4c82611d03565b810181811067ffffffffffffffff82111715611d6b57611d6a611d14565b5b80604052505050565b6000611d7e611caf565b9050611d8a8282611d43565b919050565b600067ffffffffffffffff821115611daa57611da9611d14565b5b611db382611d03565b9050602081019050919050565b82818337600083830152505050565b6000611de2611ddd84611d8f565b611d74565b905082815260208101848484011115611dfe57611dfd611cfe565b5b611e09848285611dc0565b509392505050565b600082601f830112611e2657611e25611cf9565b5b8135611e36848260208601611dcf565b91505092915050565b600073ffffffffffffffffffffffffffffffffffffffff82169050919050565b6000611e6a82611e3f565b9050919050565b611e7a81611e5f565b8114611e8557600080fd5b50565b600081359050611e9781611e71565b92915050565b600080600080600060a08688031215611eb957611eb8611cb9565b5b6000611ec788828901611ce4565b955050602086013567ffffffffffffffff811115611ee857611ee7611cbe565b5b611ef488828901611e11565b945050604086013567ffffffffffffffff811115611f1557611f14611cbe565b5b611f2188828901611e11565b935050606086013567ffffffffffffffff811115611f4257611f41611cbe565b5b611f4e88828901611e11565b9250506080611f5f88828901611e88565b9150509295509295909350565b600060208284031215611f8257611f81611cb9565b5b6000611f9084828501611e88565b91505092915050565b600080600060608486031215611fb257611fb1611cb9565b5b6000611fc086828701611e88565b935050602084013567ffffffffffffffff811115611fe157611fe0611cbe565b5b611fed86828701611e11565b925050604084013567ffffffffffffffff81111561200e5761200d611cbe565b5b61201a86828701611e11565b9150509250925092565b60006020828403121561203a57612039611cb9565b5b600061204884828501611ce4565b91505092915050565b61205a81611cc3565b82525050565b60006040820190506120756000830185612051565b6120826020830184612051565b9392505050565b600080604083850312156120a05761209f611cb9565b5b60006120ae85828601611ce4565b92505060206120bf85828601611e88565b9150509250929050565b60008115159050919050565b6120de816120c9565b82525050565b60006020820190506120f960008301846120d5565b92915050565b6000806040838503121561211657612115611cb9565b5b600061212485828601611ce4565b925050602061213585828601611ce4565b9150509250929050565b600081519050919050565b600082825260208201905092915050565b60005b8381101561217957808201518184015260208101905061215e565b60008484015250505050565b60006121908261213f565b61219a818561214a565b93506121aa81856020860161215b565b6121b381611d03565b840191505092915050565b6121c781611e5f565b82525050565b600060c0820190506121e26000830189612051565b81810360208301526121f48188612185565b905081810360408301526122088187612185565b9050818103606083015261221c8186612185565b905061222b60808301856121be565b61223860a0830184612051565b979650505050505050565b600060808201905061225860008301876121be565b818103602083015261226a8186612185565b9050818103604083015261227e8185612185565b905061228d60608301846120d5565b95945050505050565b6000602082840312156122ac576122ab611cb9565b5b600082013567ffffffffffffffff8111156122ca576122c9611cbe565b5b6122d684828501611e11565b91505092915050565b600080600080608085870312156122f9576122f8611cb9565b5b600085013567ffffffffffffffff81111561231757612316611cbe565b5b61232387828801611e11565b945050602085013567ffffffffffffffff81111561234457612343611cbe565b5b61235087828801611e11565b935050604061236187828801611ce4565b925050606061237287828801611ce4565b91505092959194509250565b60006020820190506123936000830184612051565b92915050565b6000610100820190506123af600083018b612051565b81810360208301526123c1818a612185565b905081810360408301526123d58189612185565b90506123e46060830188612051565b6123f16080830187612051565b6123fe60a08301866120d5565b61240b60c0830185612051565b61241860e0830184612051565b9998505050505050505050565b600060808201905061243a60008301876121be565b818103602083015261244c8186612185565b905061245b60408301856120d5565b61246860608301846120d5565b95945050505050565b600060208201905061248660008301846121be565b92915050565b7f456c656374696f6e206e6f7420666f756e640000000000000000000000000000600082015250565b60006124c260128361214a565b91506124cd8261248c565b602082019050919050565b600060208201905081810360008301526124f1816124b5565b9050919050565b7f4e6f7420617574686f72697a6564000000000000000000000000000000000000600082015250565b600061252e600e8361214a565b9150612539826124f8565b602082019050919050565b6000602082019050818103600083015261255d81612521565b9050919050565b7f4e487b7100000000000000000000000000000000000000000000000000000000600052601160045260246000fd5b600061259e82611cc3565b91507fffffffffffffffffffffffffffffffffffffffffffffffffffffffffffffffff82036125d0576125cf612564565b5b600182019050919050565b7f4e487b7100000000000000000000000000000000000000000000000000000000600052602260045260246000fd5b6000600282049050600182168061262257607f821691505b602082108103612635576126346125db565b5b50919050565b60008190508160005260206000209050919050565b60006020601f8301049050919050565b600082821b905092915050565b60006008830261269d7fffffffffffffffffffffffffffffffffffffffffffffffffffffffffffffffff82612660565b6126a78683612660565b95508019841693508086168417925050509392505050565b6000819050919050565b60006126e46126df6126da84611cc3565b6126bf565b611cc3565b9050919050565b6000819050919050565b6126fe836126c9565b61271261270a826126eb565b84845461266d565b825550505050565b600090565b61272761271a565b6127328184846126f5565b505050565b5b818110156127565761274b60008261271f565b600181019050612738565b5050565b601f82111561279b5761276c8161263b565b61277584612650565b81016020851015612784578190505b61279861279085612650565b830182612737565b50505b505050565b600082821c905092915050565b60006127be600019846008026127a0565b1980831691505092915050565b60006127d783836127ad565b9150826002028217905092915050565b6127f08261213f565b67ffffffffffffffff81111561280957612808611d14565b5b612813825461260a565b61281e82828561275a565b600060209050601f831160018114612851576000841561283f578287015190505b61284985826127cb565b8655506128b1565b601f19841661285f8661263b565b60005b8281101561288757848901518255600182019150602085019450602081019050612862565b868310156128a457848901516128a0601f8916826127ad565b8355505b6001600288020188555050505b505050505050565b7f4e6f742072656769737465726564000000000000000000000000000000000000600082015250565b60006128ef600e8361214a565b91506128fa826128b9565b602082019050919050565b6000602082019050818103600083015261291e816128e2565b9050919050565b7f416c726561647920766572696669656400000000000000000000000000000000600082015250565b600061295b60108361214a565b915061296682612925565b602082019050919050565b6000602082019050818103600083015261298a8161294e565b9050919050565b7f4f6e6c792061646d696e20616c6c6f7765640000000000000000000000000000600082015250565b60006129c760128361214a565b91506129d282612991565b602082019050919050565b600060208201905081810360008301526129f6816129ba565b9050919050565b6000604082019050612a1260008301856121be565b8181036020830152612a248184612185565b90509392505050565b7f416c726561647920726567697374657265640000000000000000000000000000600082015250565b6000612a6360128361214a565b9150612a6e82612a2d565b602082019050919050565b60006020820190508181036000830152612a9281612a56565b9050919050565b7f496e76616c696420646174657300000000000000000000000000000000000000600082015250565b6000612acf600d8361214a565b9150612ada82612a99565b602082019050919050565b60006020820190508181036000830152612afe81612ac2565b9050919050565b6000604082019050612b1a6000830185612051565b8181036020830152612b2c8184612185565b90509392505050565b7f4e6f7420766572696669656420766f7465720000000000000000000000000000600082015250565b6000612b6b60128361214a565b9150612b7682612b35565b602082019050919050565b60006020820190508181036000830152612b9a81612b5e565b9050919050565b7f456c656374696f6e206e6f742061637469766500000000000000000000000000600082015250565b6000612bd760138361214a565b9150612be282612ba1565b602082019050919050565b60006020820190508181036000830152612c0681612bca565b9050919050565b7f416c726561647920766f74656400000000000000000000000000000000000000600082015250565b6000612c43600d8361214a565b9150612c4e82612c0d565b602082019050919050565b60006020820190508181036000830152612c7281612c36565b9050919050565b7f496e76616c69642063616e646964617465000000000000000000000000000000600082015250565b6000612caf60118361214a565b9150612cba82612c79565b602082019050919050565b60006020820190508181036000830152612cde81612ca2565b9050919050565b6000606082019050612cfa6000830186612051565b612d076020830185612051565b612d1460408301846121be565b94935050505056fea2646970667358221220b74969bfebc88a3cdb2a9eb9f5a1c810f885c8ecd56c9816ca1419a6e597c2ae64736f6c63430008140033",
  "linkReferences": {},
  "deployedLinkReferences": {}
}